:1000000071C000008FC000008DC000008BC00000D8
:1000100089C0000087C0000085C0000083C00000C8
:1000200081C000007FC000007DC000007BC00000D8
:1000300079C0000077C0000075C0000073C00000E8
:1000400071C000006FC000006DC000006BC00000F8
:1000500069C0000067C0000065C0000063C0000008
:1000600061C000006EC30000ADC300005BC00000B3
:1000700059C0000057C0000055C0000053C0000028
:1000800051C000004FC000004DC000004BC0000038
:10009000E4C3000023C4000045C0000043C00000CA
:1000A00041C000003FC000003DC000003BC0000058
:1000B00039C0000037C0000035C0000033C0000068
:1000C00031C000002FC000002DC0000052C400004D
:1000D00091C4000027C00000D8C4000017C500006C
:1000E00021C0000011241FBECFEFD1E2DEBFCDBF83
:1000F00000E00CBF12E0A0E0B2E0ECECF4E100E0C4
:100100000BBF02C007900D92A834B107D9F723E0C6
:10011000A8E4B2E001C01D92A436B207E1F79FD176
:100120000C94640A6DCFCF93DF93EC0182E092E0F0
:100130005AD5FC01FE5FD183C083FC01118210827D
:10014000DF91CF9108959FEF98B988B92FEF33ECE5
:1001500089E0215030408040E1F700C0000098B9AC
:100160009FEF23EC39E0915020403040E1F700C090
:100170000000089511B88FEF82B980B188B980B1BD
:100180008F3FD9F380B1089588B92FEF33EC99E010
:10019000215030409040E1F700C000009FEF98B937
:1001A00068B92FEF33EC99E0215030409040E1F7EF
:1001B00000C0000091E0861390E0892F08950F930E
:1001C0001F93CF93DF938C01FC01FE5FD081C0E0D1
:1001D000C801D0DFEC2FF0E03196EE0FFF1FE00FEB
:1001E000F11F6081D1DF813031F4CF5FDC13F0CFBC
:1001F00081E090E002C080E090E0DF91CF911F911C
:100200000F91089585E090E02FEF18B83FEF40E799
:1002100052E0315040405040E1F700C0000028B9A2
:100220003FEF40E752E0315040405040E1F700C01E
:100230000000019751F7089580E090E041E050E020
:100240009A01082E02C0220F331F0A94E2F720956C
:1002500028B92FEF30E762E0215030406040E1F7ED
:1002600000C0000001968730910551F78FEF88B9E3
:100270008FEF93EC29E0815090402040E1F700C0DF
:1002800000003FEF63EC89E0315060408040E1F7CF
:1002900000C0000008950FD687709078992324F449
:1002A0000197886F9F6F019621E030E0A90102C09D
:1002B000440F551F8A95E2F7CA01809508950F9360
:1002C0001F93CF93DF93EC0122968C011E5FE3DF37
:1002D00090E089939993C017D107C9F7DF91CF9127
:1002E0001F910F9108956C01EADF76012EEFF21A4B
:1002F000F7018081918118161906D4F486010E5FEA
:100300001F4FC0E0D0E0FFEF23EC89E0F150204028
:100310008040E1F700C00000F80180810E5F1F4FB0
:1003200012DF2196F70180819181C817D9075CF30C
:10033000C60145DF019741F47FDFF701808191819C
:10034000019691838083D4CF5DDFFFEF23EC89E0BA
:10035000F15020408040E1F700C00000C9CF6F5F3E
:100360007F4F660F771F860F971FFC018081918159
:1003700008959E5FFC018081918108959E5FFC013C
:10038000718360830895FC01808191810895CF93EA
:10039000DF938AE090E0C7DEEC01EBDF0A9751F4CF
:1003A00064E170E0CE01EADFCE01E3DF449711F4AF
:1003B000CE01E9DFDF91CF9108950F931F93CF9383
:1003C000DF93C0E0D0E000E810E0C8010C2E02C0CE
:1003D000959587950A94E2F78095B5DE2196C83009
:1003E000D10599F7CAE0D0E027DF2197E9F7CAE005
:1003F000D0E008DF2197E9F7809148029091490207
:1004000001969093490280934802DF91CF911F910A
:100410000F91089563E383E3B7DE813019F46FEF42
:1004200083E3B2CE08950F931F93CF93DF9385E0BC
:1004300090E079DE8C0157DFC0E0D0E0BE01C8015A
:100440008EDF2196C530D105C9F7DF91CF911F917D
:100450000F910895DFDFB1DF9ADFE5CF089540E81F
:1004600056E968E970E080E033D0789480E292E069
:100470009F938F932ED58FEF87B988B98FEF90E038
:1004800052DEE8DF84E392E09F938F9322D50F90B2
:100490000F900F900F90FFCFCF93DF931F92CDB7A8
:1004A000DEB7BE016F5F7F4F8DEC92E066D08111A9
:1004B000F8CF898190E00F90DF91CF910895682F58
:1004C000809150039091510324D180E090E00895F1
:1004D0004F925F926F927F928F929F92AF92CF9244
:1004E000EF920F931F93CF93C82F2A013B018DECFE
:1004F00092E03AD08AE492E037D01F921F928AE4C9
:1005000092E09F938F930F2EFDEC8F2EF2E09F2EA3
:10051000F02DA12CC12C0F2EF3E0EF2EF02D00E0DA
:1005200011EE20E030E0B301A2018C2F70D0909347
:10053000510380935003EEE5F3E08AE092E091836B
:100540008083938382830F900F900F900F90CF91B1
:100550001F910F91EF90CF90AF909F908F907F90D1
:100560006F905F904F900895FC01E058FF4F10820C
:1005700031961082319610820895FC01EE57FF4F9C
:1005800020812223F9F031972081DC01A20FB11DD7
:100590002C91DB012C93208130E02F5F3F4F2F7790
:1005A0003078332334F42150310920683F6F2F5FB6
:1005B0003F4F2083FC01EE57FF4F808181508083A5
:1005C00080E0089581E00895FC01EE57FF4F4081DF
:1005D0004423DCF03297208130E0DC01A20FB31F0E
:1005E0006C932F5F3F4F2F773078332334F42150B3
:1005F000310920683F6F2F5F3F4F2083FC01EE578A
:10060000FF4F4F5F408380E0089582E008954F924E
:100610005F926F927F928F929F92DF92EF92FF9202
:100620000F931F93CF93DF9300D01F92CDB7DEB708
:10063000D82E49835A836B837C832801390188E053
:1006400090E0D1D27C018D2D90E0880F991FFC01A4
:10065000EE5AFC4FF182E082FC01E85EFD4F8081A2
:100660009181D70111969C938E938D899E891396C3
:100670009C938E93129715969C928E9214978F89C5
:10068000988D17969C938E931697DFB6F894ED91FC
:10069000FC91119736978081826080838D909C9029
:1006A000D301C201880F991FAA1FBB1F880F991F72
:1006B000AA1FBB1F9C01AD01220F331F441F551FF2
:1006C00069817A818B819C816CD22150F4013297AF
:1006D0002083D701ED91FC911197359788E98083AC
:1006E000ED91FC91349786E08083DFBEC7010F90C7
:1006F0000F900F900F90DF91CF911F910F91FF906E
:10070000EF90DF909F908F907F906F905F904F90D1
:100710000895CF93DF93FC0182819381009759F074
:10072000EF0152DF811109C0E881F981359790818D
:100730009062908303C082E001C082E0DF91CF919C
:1007400008951F920F920FB60F9211240BB60F92BD
:100750002F933F934F935F936F937F938F939F93C9
:10076000AF93BF93CF93EF93FF93E0915203F09138
:100770005303309799F0C091C6006C2F8481958106
:1007800023DF8091520390915303DC011696ED9183
:10079000FC911797309711F06C2F1995FF91EF91FD
:1007A000CF91BF91AF919F918F917F916F915F9109
:1007B0004F913F912F910F900BBE0F900FBE0F9056
:1007C0001F9018951F920F920FB60F9211240BB61F
:1007D0000F922F933F934F935F936F937F938F93DA
:1007E0009F93AF93BF93EF93FF93CF93DF931F92AA
:1007F000CDB7DEB7E0915203F0915303309791F0FB
:10080000BE016F5F7F4F82819381B7DE811104C08B
:1008100089818093C6000BC0E1ECF0E080818F7D80
:10082000808305C0E1ECF0E080818F7D80830F90B4
:10083000DF91CF91FF91EF91BF91AF919F918F91F8
:100840007F916F915F914F913F912F910F900BBED0
:100850000F900FBE0F901F9018951F920F920FB61A
:100860000F9211240BB60F922F933F934F935F93E8
:100870006F937F938F939F93AF93BF93CF93EF9398
:10088000FF93E0915403F0915503309799F0C09194
:10089000CE006C2F8481958197DE809154039091D6
:1008A0005503DC011696ED91FC911797309711F0E6
:1008B0006C2F1995FF91EF91CF91BF91AF919F91BF
:1008C0008F917F916F915F914F913F912F910F90F9
:1008D0000BBE0F900FBE0F901F9018951F920F9296
:1008E0000FB60F9211240BB60F922F933F934F9395
:1008F0005F936F937F938F939F93AF93BF93EF9388
:10090000FF93CF93DF931F92CDB7DEB7E0915403EF
:10091000F0915503309791F0BE016F5F7F4F828158
:1009200093812BDE811104C089818093CE000BC09E
:10093000E9ECF0E080818F7D808305C0E9ECF0E098
:1009400080818F7D80830F90DF91CF91FF91EF9118
:10095000BF91AF919F918F917F916F915F914F91D7
:100960003F912F910F900BBE0F900FBE0F901F90D5
:1009700018951F920F920FB60F9211240BB60F927B
:100980002F933F934F935F936F937F938F939F9397
:10099000AF93BF93CF93EF93FF93E0915603F09102
:1009A0005703309799F0C091D6006C2F84819581C0
:1009B0000BDE8091560390915703DC011696ED9162
:1009C000FC911797309711F06C2F1995FF91EF91CB
:1009D000CF91BF91AF919F918F917F916F915F91D7
:1009E0004F913F912F910F900BBE0F900FBE0F9024
:1009F0001F9018951F920F920FB60F9211240BB6ED
:100A00000F922F933F934F935F936F937F938F93A7
:100A10009F93AF93BF93EF93FF93CF93DF931F9277
:100A2000CDB7DEB7E0915603F0915703309791F0C0
:100A3000BE016F5F7F4F828193819FDD811104C072
:100A400089818093D6000BC0E1EDF0E080818F7D3D
:100A5000808305C0E1EDF0E080818F7D80830F9081
:100A6000DF91CF91FF91EF91BF91AF919F918F91C6
:100A70007F916F915F914F913F912F910F900BBE9E
:100A80000F900FBE0F901F9018951F920F920FB6E8
:100A90000F9211240BB60F922F933F934F935F93B6
:100AA0006F937F938F939F93AF93BF93CF93EF9366
:100AB000FF93E0915803F0915903309799F0C0915A
:100AC00036016C2F848195817FDD80915803909150
:100AD0005903DC011696ED91FC911797309711F0B0
:100AE0006C2F1995FF91EF91CF91BF91AF919F918D
:100AF0008F917F916F915F914F913F912F910F90C7
:100B00000BBE0F900FBE0F901F9018951F920F9263
:100B10000FB60F9211240BB60F922F933F934F9362
:100B20005F936F937F938F939F93AF93BF93EF9355
:100B3000FF93CF93DF931F92CDB7DEB7E0915803B9
:100B4000F0915903309791F0BE016F5F7F4F828122
:100B5000938113DD811104C08981809336010BC01C
:100B6000E1E3F1E080818F7D808305C0E1E3F1E086
:100B700080818F7D80830F90DF91CF91FF91EF91E6
:100B8000BF91AF919F918F917F916F915F914F91A5
:100B90003F912F910F900BBE0F900FBE0F901F90A3
:100BA0001895A1E21A2EAA1BBB1BFD010DC0AA1F9E
:100BB000BB1FEE1FFF1FA217B307E407F50720F0C6
:100BC000A21BB30BE40BF50B661F771F881F991F41
:100BD0001A9469F760957095809590959B01AC018A
:100BE000BD01CF0108950F931F93CF93DF93823000
:100BF000910510F482E090E0E0915C03F0915D03D8
:100C000020E030E0A0E0B0E0309719F14081518160
:100C10000281138148175907C8F08417950769F4B2
:100C2000109731F012960C93129713961C9327C0CD
:100C300000935C0310935D0322C02115310519F068
:100C40004217530718F49A01BD01EF01DF01F801C3
:100C5000DBCF21153105F9F0281B390B2430310584
:100C600080F48A819B816115710521F0FB019383DA
:100C7000828304C090935D0380935C03FE013296EF
:100C800044C0FE01E20FF31F81939193225031097A
:100C9000398328833AC020915A0330915B03232B78
:100CA00041F4209102023091030230935B032093C0
:100CB0005A0320910002309101022115310541F4BF
:100CC0002DB73EB74091040250910502241B350B0D
:100CD000E0915A03F0915B03E217F307A0F42E1B97
:100CE0003F0B2817390778F0AC014E5F5F4F241790
:100CF000350748F04E0F5F1F50935B0340935A0334
:100D00008193919302C0E0E0F0E0CF01DF91CF91B9
:100D10001F910F910895CF93DF93009709F481C03D
:100D2000FC01329713821282A0915C03B0915D03A3
:100D3000109781F420813181820F931F20915A03F3
:100D400030915B032817390751F5F0935B03E0936B
:100D50005A0367C0ED0120E030E0CE17DF0740F412
:100D60004A815B819E0141155105F1F0EA01F5CF01
:100D7000D383C28340815181840F951FC817D9073F
:100D800059F488819981840F951F029691838083FD
:100D90008A819B81938382832115310529F4F09305
:100DA0005D03E0935C033DC0E901FB83EA83499165
:100DB0005991C40FD51FEC17FD0761F48081918113
:100DC000840F951F0296E90199838883828193811C
:100DD0009B838A83E0E0F0E012968D919C911397BB
:100DE000009719F0FD01DC01F7CF8D919C911197CF
:100DF0009D012E5F3F4F820F931F20915A03309128
:100E00005B032817390769F4309729F410925D03C2
:100E100010925C0302C013821282B0935B03A09312
:100E20005A03DF91CF9108958F929F92AF92BF9214
:100E3000CF92DF92EF92FF92CF93DF93EC01688124
:100E400079818A819B81611571058105910521F464
:100E500064E279ED8BE597E02DE133EF41E050E07E
:100E6000F8D249015A019B01AC01A7EAB1E40DD3C4
:100E70006B017C01ACEEB4EFA501940112D3DC014F
:100E8000CB018C0D9D1DAE1DBF1DB7FF03C001978B
:100E9000A109B04888839983AA83BB839F77DF9198
:100EA000CF91FF90EF90DF90CF90BF90AF909F9049
:100EB0008F900895B9CF86E092E0B6CFA0E0B0E081
:100EC0008093060290930702A0930802B093090250
:100ED0000895CF93DF93CDB7DEB7AE014A5F5F4F82
:100EE000FA0161917191AF0180916003909161036A
:100EF00003D0DF91CF9108952F923F924F925F924E
:100F00006F927F928F929F92AF92BF92CF92DF9219
:100F1000EF92FF920F931F93CF93DF93CDB7DEB77E
:100F20002B970FB6F894DEBF0FBECDBF6C017B01CF
:100F30008A01FC0117821682838181FFBFC1CE0125
:100F400001963C01F6019381F70193FD859193FF92
:100F500081917F01882309F4ADC1853239F493FD75
:100F6000859193FF81917F01853221F4B60190E054
:100F7000D6D1E8CF912C212C312CFFE1F315D8F0FC
:100F80008B3279F038F4803279F08332A1F4232D5A
:100F900020611DC08D3261F0803369F4232D216002
:100FA00016C0832D8260382EE32DE4603E2E2AC0C9
:100FB000F32DF8601DC037FC2DC020ED280F2A301E
:100FC00040F08E32B9F436FC75C1232D2064322EE8
:100FD00019C036FE06C08AE0989E200D1124922E7C
:100FE00011C0EAE02E9E200D1124222EF32DF06276
:100FF0003F2E08C08C3621F4832D8068382E02C025
:10100000883641F4F70193FD859193FF81917F012B
:101010008111B3CF982F9F7D9554933028F40C5FA6
:101020001F4F9FE399830DC0833631F0833771F0F2
:10103000833509F055C020C0F801808189830E5F97
:101040001F4F88248394912C530112C02801F2E091
:101050004F0E511CF801A080B18036FE03C0692DEF
:1010600070E002C06FEF7FEFC5014ED14C018201ED
:10107000F32DFF773F2E15C0280122E0420E511CB0
:10108000F801A080B18036FE03C0692D70E002C077
:101090006FEF7FEFC5012DD14C01F32DF0683F2E8E
:1010A000820133FC19C0822D90E088169906A0F4C5
:1010B000B60180E290E033D12A94F5CFF50137FCF8
:1010C000859137FE81915F01B60190E028D1211012
:1010D0002A9421E0821A91088114910479F7E1C0E1
:1010E000843611F0893639F5F80137FE07C0608182
:1010F0007181828193810C5F1F4F08C06081718173
:10110000072E000C880B990B0E5F1F4FF32DFF76F7
:101110003F2E97FF09C090958095709561957F4F00
:101120008F4F9F4FF0683F2E2AE030E0A30133D16C
:10113000882E861844C0853731F4232D2F7EB22E99
:101140002AE030E025C0932D997FB92E8F36C1F06B
:1011500018F4883579F0AEC0803719F0883721F05F
:10116000A9C0E92FE061BE2EB4FE0DC0FB2DF460D6
:10117000BF2E09C034FE0AC0292F2660B22E06C039
:1011800028E030E005C020E130E002C020E132E09C
:10119000F801B7FE07C060817181828193810C5F85
:1011A0001F4F06C06081718180E090E00E5F1F4F8D
:1011B000A301F1D0882E8618FB2DFF773F2E36FE37
:1011C0000DC0232D2E7FA22E891458F434FE0BC09F
:1011D00032FC09C0832D8E7EA82E05C0B82CA32C0E
:1011E00003C0B82C01C0B92CA4FE0FC0FE01E80D4D
:1011F000F11D8081803321F49A2D997EA92E09C09A
:10120000A2FE06C0B394B39404C08A2D867809F078
:10121000B394A3FC10C0A0FE06C0B21480F4280C46
:10122000922C9B180DC0B21458F4B60180E290E0E5
:1012300076D0B394F8CFB21418F42B1802C0982CBF
:10124000212CA4FE0FC0B60180E390E068D0A2FE7E
:1012500016C0A1FC03C088E790E002C088E590E0DA
:10126000B6010CC08A2D867851F0A1FE02C08BE237
:1012700001C080E2A7FC8DE2B60190E050D0891455
:1012800030F4B60180E390E04AD09A94F8CF8A9483
:10129000F301E80DF11D8081B60190E040D081108E
:1012A000F6CF222009F44ECEB60180E290E037D08E
:1012B0002A94F7CFF6018681978102C08FEF9FEFC6
:1012C0002B960FB6F894DEBF0FBECDBFDF91CF9146
:1012D0001F910F91FF90EF90DF90CF90BF90AF9054
:1012E0009F908F907F906F905F904F903F902F9046
:1012F0000895FC010590615070400110D8F7809569
:1013000090958E0F9F1F0895FC01615070400190D1
:101310000110D8F7809590958E0F9F1F08950F9319
:101320001F93CF93DF93FB01238121FD03C08FEF38
:101330009FEF2CC022FF16C0468157812481358142
:101340004217530744F4A081B1819D012F5F3F4FA5
:10135000318320838C93268137812F5F3F4F3783E2
:10136000268314C08B01EC01FB010084F185E02D84
:101370001995892BE1F6D80116968D919C911797B6
:10138000019617969C938E931697CE01DF91CF917D
:101390001F910F910895FA01AA27283051F12031A9
:1013A00081F1E8946F936E7F6E5F7F4F8F4F9F4FF9
:1013B000AF4FB1E03ED0B4E03CD0670F781F891F3B
:1013C0009A1FA11D680F791F8A1F911DA11D6A0F09
:1013D000711D811D911DA11D20D009F468943F91BC
:1013E0002AE0269F11243019305D3193DEF6CF01BB
:1013F0000895462F4770405D4193B3E00FD0C9F781
:10140000F6CF462F4F70405D4A3318F0495D31FDED
:101410004052419302D0A9F7EACFB4E0A695979540
:10142000879577956795BA95C9F700976105710516
:1014300008959B01AC010A2E069457954795379560
:101440002795BA95C9F7620F731F841F951FA01DBA
:101450000895052E97FB16F400940FD057FD05D084
:10146000A0DB07FC02D046F408C0509540953095AB
:1014700021953F4F4F4F5F4F089590958095709500
:1014800061957F4F8F4F9F4F08950FD0A59F900D6F
:10149000B49F900DA49F800D911D11240895B7FF56
:1014A000F4CFF3DF821B930B0895A29FB001B39F8B
:1014B000C001A39F700D811D1124911DB29F700D5D
:0C14C000811D1124911D0895F894FFCFA8
:1014CC000000640320000100000000000003000085
:1014DC0000005F024C020000C600CE00D6003601B0
:1014EC00546573747320636F6D6D656E63696E679D
:1014FC002E2E2E00546573747320636F6E636C759F
:08150C006465642E2E2E000020
:00000001FF
